:1000000000000420750300005D0300005F03000092
:1000100061030000630300006503000000000000AE
:100020000000000000000000000000006703000066
:1000300069030000000000006B0300006D03000076
:100040006F0300006F03000059150000B923000082
:10005000112000006F0300006F0300006F03000019
:100060006F0300006F0300006F0300006F030000C8
:100070006F0300006F0300006F0300006F030000B8
:100080006F0300006F0300006F0300006F030000A8
:100090006F0300006F0300006F0300006F03000098
:1000A0006F0300006F0300006F0300006F03000088
:1000B0006F0300006F03000000000000000000005C
:1000C0006F0300006F0300006F0300006F03000068
:1000D0006F0300006F0300006F0300006F03000058
:1000E0006F0300006F0300006F03000000000000BA
:1000F000000000006F030000000000006F0300001C
:1001000000000000000000000000000000000000EF
:1001100000000000000000000000000000000000DF
:1001200000000000000000000000000000000000CF
:1001300000000000000000000000000000000000BF
:1001400000000000000000000000000000000000AF
:10015000000000000000000000000000000000009F
:10016000000000000000000000000000000000008F
:10017000000000000000000000000000000000007F
:10018000000000000000000000000000000000006F
:10019000000000000000000000000000000000005F
:1001A000000000000000000000000000000000004F
:1001B000000000000000000000000000000000003F
:1001C000000000000000000000000000000000002F
:1001D000000000000000000000000000000000001F
:1001E000000000000000000000000000000000000F
:1001F00000000000000000000000000000000000FF
:10020000354936480A1A02D0072291438D463449AF
:1002100034480A1A06D00722914381F30988022242
:1002200082F3148830483149314A00F044F83148AB
:100230003149324A00F03FF831483249324A00F041
:100240003AF832483249334A00F035F832483349F7
:10025000334A00F030F833483349344A00F02BF881
:1002600033483449344A00F026F8344834490022EF
:1002700000F02CF833483449002200F027F83348C6
:100280003349091A082902DB002202604160314A21
:1002900090471F481F49884205D00268043003B4C4
:1002A000904703BCF7E700208646EC46002000217B
:1002B000294A9047FEE7884207D0521A05D00378B2
:1002C00001300B700131013AF9D17047884202D0F8
:1002D00002700130FAE770470000042000E00320BC
:1002E0000000042000000420304A0000000000202C
:1002F00038000020D0030000D00300006C44000050
:10030000304A00000000002000000020C04400002F
:10031000C0440000C0440000C0440000C0440000CD
:10032000C0440000C0440000C0440000304A000047
:10033000684A000038000020380000203800002003
:1003400008090020080900200C0900200C090020E1
:100350000C2900209D0300000D270000FEE7FEE7AA
:10036000FEE7FEE7FEE7FEE7FEE7FEE7FEE7FEE765
:1003700000F002B8FFF7FCBF0F484FF007018843B9
:1003800085460E4880470E48016841F470010160BF
:10039000BFF34F8FBFF36F8FFFF732BF09480A4992
:1003A0000A4A884207D0521A05D0037801300B70F0
:1003B0000131013AF9D17047000004203D2E0000C0
:1003C00088ED00E0C0440000000000200000002094
:1003D0000048704700090020F0B595B01D4616464C
:1003E00008460C4600F066FF1A9B0D93CDE90865A0
:1003F00000252B46082205A920460A958DF82C5089
:100400000C9500F074FF079B0293069B03939DF8E5
:1004100014308DF8115003F00302012A1DD1BDF8EC
:100420001420059DC3F3C203C2F383168DF8103068
:10043000B20008230EA9204600F059FFC5F3952508
:1004400008AB0093324602AB0EA9284600F040FBF1
:10045000204600F033FF15B0F0BD022AF8D1BDF8F8
:100460001650C3F3C203C5F389158DF81030082761
:10047000082D2E4628BF08263B4632460EA92046A8
:1004800000F035FFAD1B08AB02AA31460EA8374479
:1004900000F082FB002DEBD1DAE70000014B0122D6
:1004A0001A707047790000207047000070B5124D37
:1004B00006460FCD88B06C460FC495E80F00002E9D
:1004C00084E80F004FF0FF334FF00602CDE9002320
:1004D000CDE90233094A0A484FF0EB7308BF002206
:1004E0006946069300F0FAFF08B100F0B1FB054B36
:1004F0001E7008B070BD00BFC04400009D04000025
:10050000000000203800002007B5044B0093044A87
:100510004023FFF761FF03B05DF804FB25050000F1
:100520003900002038B50D4B0D4D002018700D48D6
:1005300004782D5DD2B21C4665B1043001F0B0FCE8
:1005400008B100F085FB084B1A7812B12378002B14
:10055000FBD038BD0C3001F047FAF1E779000020FC
:1005600090050020000000203800002008B5084851
:10057000084A0378D35C3BB1043001F00DFCBDE8C0
:1005800008400020FFF792BF0C3001F0D1F9F6E7E8
:100590000000002090050020037813F0040216D01C
:1005A00003F00303012B03D0022B09D00120704775
:1005B0000A6800880232C0F3831002440A60F5E73B
:1005C0000B684288023303EB92130B60EEE7104690
:1005D000704700002DE9F04F044685B0861C0020CE
:1005E0000F46154600F08CFB3F4A5168396093680E
:1005F00003F580735B1A924602F21C4702F5836989
:1006000002F21448B34219D30020002D68D004F040
:100610000F039B0143F0050363F30F00DAF8043086
:10062000DAB203321E444AF822000020CAF80460FD
:1006300000F068FB012005B0BDE8F08F01213846CD
:1006400000F085FB484600F09AFB404600F097FB1F
:10065000DAF808000090C0B203300AEB8000694667
:10066000FFF79AFF009B30BBDAB20AEB8202D16837
:1006700001919A1C0133DBB20AEB83030092D3F899
:100680000CB001F00303012B22D0022B15D08346BE
:10069000404600F077FB10B1009BCAF8083059467D
:1006A000384600F054FBDAF80830DAF8042003F595
:1006B00080739B1AA6E7D8B2CEE7BDF80630C3F325
:1006C000891303334FEA1B4B02EB93030093DFE7DD
:1006D000BDF80430C3F383134FEA1B4B1344F5E713
:1006E000A40544F0060099E74C01002030B50A4CFF
:1006F00071B10A4A0A49121BD20800239A4201D159
:10070000002030BD31F82350854202D00133F5E797
:10071000034654F83300F4E76C4400009C440000A6
:1007200000000020094B013903EBC000032909D860
:10073000DFE801F00A0204060420704700797047E0
:100740004079704700207047022070476C440000D9
:10075000034BD3E90130C31A58425841704700BFD8
:100760004C0100202DE9FF41FFF7F2FF054600286C
:1007700040F0E280714CC4F81804BFF34F8FA368B7
:100780000093DBB2033304EB83006946FFF704FFF9
:10079000009B18B1D4F81824002A55D0DAB2991C5D
:1007A000013304EB8202DBB204EB8303D268DB6823
:1007B000029302F00303022B019200914FD1BDF886
:1007C00006305F48C3F38917502F3E4628BF502696
:1007D00066F38F1306F10801ADF8063000F03BFD1B
:1007E0000546002800F0938000F064FD002301A975
:1007F0000822284600F071FD0099CB43DBB201339B
:10080000C9B20331B6EB830F4FEA830804EB8101D1
:1008100022D908234246A6EB0806284600F05DFDD3
:10082000F6B2484908F108033246284600F055FD63
:10083000009B033703EB97070097D4F81834002B7D
:1008400041D1D4F8106451E062689A4299D8A2600C
:10085000284604B0BDE8F08108233246E5E7012BC5
:1008600055D1BDF804303648C3F38311062928BF9B
:10087000062161F3891302318900ADF8043000F0DC
:10088000EAFC0546002842D000F014FD00230822AF
:1008900001A9284600F021FD0026BDF80420C2F37E
:1008A0008312B300964203F10803C6D200994A1C92
:1008B000C9B20331009204EB81010422284600F002
:1008C0000CFD0136E9E7284600F0F8FCFFF740FF91
:1008D00080F00100C5B2BBE7F3685B7923B13368F0
:1008E00029461B6830469847F3681E68002EF3D1EE
:1008F000284600F0E3FC304600F002FAD4F8183441
:100900000BB9009BA360002000F0FCF9DEE7D4F8EF
:10091000104454B90C4B0D480D49C01AC0080004CE
:1009200040F0020000F05CF8D0E7236820469B68A6
:100930009847E3681C68ECE7002589E74C01002034
:10094000AC440000580100206C44000094440000B6
:10095000FD4400002DE9F34704460E46924601A9E6
:10096000012218469946FFF735FE1B4F10B3019D33
:100970004FF00008AA1CC84508EB020123D1174814
:10098000002100F0C1F980F31000000440EA144097
:10099000E4006B1C04F03804DBB2EDB244F0010457
:1009A00007EB8303033544EA881444EA8624D860BD
:1009B00047F825403B781BB1FFF7D4FE0028FBD158
:1009C00002B0BDE8F087C9B207EB81015AF82830C0
:1009D000CB6008F10108CEE74C010020680500203B
:1009E00000231A46FFF7B6BF084A38B50123D2F8EC
:1009F000104413701D4604B938BDE3685D71236867
:100A000020465B689847E3681C68F4E74C010020C7
:100A100007B503460846197A052911D05B7A2BB130
:100A2000094A0A49019000F0F0F90198084901903B
:100A300000F0EBF9019803B05DF804EB00F0DAB9CF
:100A4000002AF8D0F2E700BF124500001745000069
:100A50003745000030B5C38885B004460D4633B134
:100A6000144A00921449154A284600F0CEF9217A1A
:100A700005291DD0637A4BB1A088FFF753FE104BB8
:100A8000104953F82020284600F0BFF9227A0E4B77
:100A9000A08853F8222003920021FFF727FE039A33
:100AA0000A490346284605B0BDE8304000F0ADB91C
:100AB00005B030BD12450000224500001A45000077
:100AC000A045000017450000C44500003A4500005D
:100AD0002DE9F04385B01F460C9D002395F80C903E
:100AE0002B7306460C46904629463846FFF7B2FF60
:100AF000B8F1060F09D8DFE808F00412181F2833F0
:100B000040003146284600F080F900222946384648
:100B1000FFF77EFF85F80C9005B0BDE8F0832268F2
:100B20003146284600F071F9EFE7D4E90023314659
:100B3000284600F06AF9E8E7A36800933146D4E953
:100B40000023284600F061F9DFE7E3680193A3681A
:100B500000933146D4E90023284600F056F9D4E743
:100B600023690293E3680193A36800933146D4E9B3
:100B70000023284600F049F9C7E763690393236916
:100B80000293E3680193A36800933146D4E90023FC
:100B9000284600F03AF9B8E708292DE9F74F8046D2
:100BA0000E4617461C463CD8002593F80C901D7342
:100BB00019461046FFF74EFFDFF888A0DFF888B02F
:100BC000AE4231D918F805205946204600F01DF9EB
:100BD0000135082DF4D11949194DDFF870A02046D0
:100BE00000F013F94FF0000B5E4522D918F80B20E6
:100BF0007E2A05D81046019202F098FB019A00B9AE
:100C00002E225146204600F000F90BF1010BBBF1FA
:100C1000080FE9D1012221463846FFF7F9FE84F892
:100C20000C9003B0BDE8F08F5146204600F0EDF87F
:100C3000CEE72946204600F0E8F8E6E74E450000FA
:100C40004C4500004A450000444500005045000066
:100C50001FB50021039001AA44F20100CDE9011162
:100C600000F004F805B05DF804FB000010B572B6A2
:100C7000FFF7BAFEFFF776FD0028FBD1104B114CB1
:100C80001149E41AE408240444F00100FFF7A8FE27
:100C90000E4B1B68DB0700D500BE0D4944F0020077
:100CA000FFF79EFEBFF34F8F0A490B4BCA6802F451
:100CB000E0621343CB60BFF34F8F00BFFDE700BF7F
:100CC0006C44000094440000D8450000F0ED00E0C2
:100CD000E445000000ED00E00400FA0572B6024AA7
:100CE00013680133136070476C050020034A1368D2
:100CF000013B136003B962B6704700BF6C0500206A
:100D0000FFF7ECBFFFF7F2BF10B5034653E8000F43
:100D10000A4643E8002494F0000FF7D110BD10B547
:100D2000034653E8002F42EA010043E8000494F030
:100D3000000FF6D110BD10B5034653E8000F00EACE
:100D4000010243E8002494F0000FF6D110BD10B565
:100D5000034653E8002F02EB010043E8000494F03F
:100D6000000FF6D110BD10B5034653E8002FA2EBDB
:100D7000010043E8000494F0000FF6D110BD0121FA
:100D8000FFF7CDBF0021FFF7D6BF38B504460020DE
:100D9000FFF7B6FF226863681168994213D9481EAD
:100DA000106011F8015CE368218A01FB0535A36836
:100DB00011791B1ADBB2994200D213710020FFF7A0
:100DC000A1FF284638BD0025F8E738B505460020C4
:100DD0000C46FFF795FF2A681368591C1160E968F3
:100DE000641A298AB4FBF1F41C70BDE83840002075
:100DF000FFF788BF826810B504462AB143690168CD
:100E0000006998470023A36010BD0EB403B5039991
:100E100021B104AB01AA019300F076F802B05DF8AD
:100E200004EB03B070470A2938B504460D4602D1D9
:100E30000D21FFF7F8FFA3682268591CA160D55463
:100E4000D4E901329A4204D32046BDE83840FFF786
:100E5000D1BF38BD2DE9F84F9846DDE90A43154664
:100E600082460F460A464FF00109AA420FD2C145F9
:100E700038BFC14613F0010B01D16CB90024012623
:100E8000B8F1010F1BD908F1FF386E43F8E709F1FB
:100E90000109B2FBF5F2E8E79B070ED5B8F1000FA8
:100EA0000CBF30262026A145E9D2013C31465046F0
:100EB000FFF7B9FF002CF6D1E0E72026F3E7B7FBF8
:100EC000F6F39D42E1D9DFF83C80B7FBF6F35046DC
:100ED00018F8031006FB1377FFF7A5FF3346AB4264
:100EE000B6FBF5F6F1D2BBF1000F02D00CB1A14573
:100EF00001D3BDE8F88F20215046013CFFF793FF56
:100F0000F4E700BFF14500002DE9F74F054617460D
:100F10008846002900F0428118F8011B49B92B7B53
:100F2000002B00F03B81284603B0BDE8F04FFFF7EF
:100F300061BF252940F0B780002698F800302D2B9E
:100F4000424608F1010823D0302B24D02B2B25D08A
:100F500000242A2B02F1010123D13B681A1D1B68D2
:100F60003A601C440A4613782E2B26D101324FF0EA
:100F7000000A104610F8011BA1F1300CBCF1090F5A
:100F80001DD80A2303FB0A13A3F1300A0246F0E737
:100F900046F00106D1E746F00206CEE746F0040629
:100FA000CBE711F8013CA3F130000928DBD80A2275
:100FB00002FB0434303C0A46CBE74FF0000A12F83B
:100FC000011B01F0FB0068289046F8D0782909D869
:100FD0006F290CD8632962D022D8252963D05829DB
:100FE00000F0888098F80030002B95D197E7703991
:100FF0000829F7D801A353F821F000BF77110000AA
:10100000E50F0000E50F000005110000E50F0000EE
:10101000E3100000E50F0000E50F0000F5100000F0
:10102000642901D06929DDD13A68D2F80090111DF8
:1010300089EAE9723960A2EBE9724FF0010B092AE3
:1010400035DCD34538BFD3462CB1B9F1000F01DBF5
:10105000720700D5013CB30702D5BAF1000F03D0E7
:10106000F00701D44CBB0024B9F1000F2DDAC9F10F
:1010700000092D212846FFF7D6FE06F00302022ABA
:1010800004D1BAF1000F01D11CBB0024CDE9004608
:1010900053460A2249462846FFF7DCFEA2E73B6892
:1010A0001A1D19783A602846FFF7BDFE9AE70A2311
:1010B0000BF1010BB2FBF3F2C1E7A345D4D220211F
:1010C0002846013CFFF7AFFECCE77107D5D52B21B1
:1010D000D0E7A345DAD230212846013CFFF7A3FE32
:1010E000D2E73968CDE900460A1D3A6053460A2224
:1010F0000968D0E739680A1D3A60CDE900465346D1
:101100001022F5E73B681A1D3A6016F00106D3F885
:10111000009028D1B9F1000F03D0484602F0E6F95B
:101120000646B44200D904BB09F1FF3919F8011F82
:1011300000293FF457AF2846FFF775FEF6E728462B
:101140000136FFF770FE19F806100029F7D1A64204
:10115000BFF448AF002C3FF445AF20212846013CA6
:10116000FFF761FEF3E70026EDE720212846013C6A
:10117000FFF759FED5E73B681A1D3A603021284633
:101180001C68FFF750FE78212846FFF74CFE00222E
:101190000823CDE90032214610227CE703B0BDE8E8
:1011A000F08F00BF2DE9F84FB0F806A04579D2F8CE
:1011B00000B09DF828900AFB05F5043D88460BEB2E
:1011C0000301A94203F1040488BFA5EB030BB4FBA0
:1011D000FAF607460AFB1644C2F800B04EB9AAEB6D
:1011E00004055D4528BF5D46BBF1000F04D1BDE895
:1011F000F88F3F68013EF1E7043408EB06003C44F9
:101200002A46B9F1000F0DD02146ABEB050B02F0D9
:10121000EFF8DA452E443F6855464FF0000428BFEA
:101220005D46E1E701462046EFE7F8B5467901461D
:10123000721E0546002393422D6803D30024A64264
:1012400002D8F8BD0133F6E70F682846FFF7BDFD69
:1012500001343946F3E72DE9F843068ACD1C0746E9
:10126000FFF793FD043E35440446B5FBF6F5F0B1B7
:101270004FF48073EDB28380C680013D07608146E4
:101280004FF00008A84512D23846FFF77EFD06460B
:1012900048B163790133637108F10108C9F80000AE
:1012A00007608146EEE72046FFF7BFFF3446204641
:1012B000BDE8F88301210430FFF749BD10B50121D5
:1012C00004460430FFF74FFD10F0FF0F04D1204615
:1012D000BDE81040FFF7A9BF10BD1FB50392002263
:1012E000009203AAFFF75EFF05B05DF804FB1FB58F
:1012F00003920122009203AAFFF754FF05B05DF8A4
:1013000004FB00001FB503788DF800308388ADF82A
:10131000043083688DF80630C3688DF807300369A0
:1013200002934369054A0393054B684653F82130FD
:1013300052F82110984705B05DF804FB70050020B5
:1013400078050020024B4FF4807043F001031847EA
:10135000104600001F2886BF054A00F01F004FF00E
:10136000A042012303FA00F0C2F80805704700BF4D
:10137000000300502DE9F047154690F80080394AE7
:1013800042F82850384A42F828304B7B06460C4633
:10139000A3B30868DFF8D8904FF0A04100F5E073E0
:1013A00040F20C6241F82320636803F5E0730027E4
:1013B00041F82320FFF7CEFF6068FFF7CBFF2368DB
:1013C00003F5E07340F20D6241F82320636803F5F2
:1013D000E0734FF0010A41F82320FFF7B3FF636881
:1013E0001F2B8ABF4A464FF0A04203F01F03D2F8DA
:1013F000102522FA03F3DB070BD507BB002D1B4A90
:10140000434608BF2A462146301DBDE8F04701F09B
:1014100093B823681F2B86BF03F01F034A464FF083
:10142000A0420AFA03F3C2F80C35FFF78BFF01372D
:101430002068FFF78FFFFFF785FF092FCFD1636883
:101440001F2B86BF0A4903F01F034FF0A041012262
:1014500002FA03F3C1F80C35FFF774FF6068FFF779
:1014600079FFCBE778050020700500200513000008
:10147000000300501FB503788DF8003043680193D6
:1014800083688DF80830C368054A0393054B6846A6
:1014900053F8213052F82110984705B05DF804FB4D
:1014A00080050020880500201FB503788DF80030E6
:1014B0004368019383688DF80830C368054A039335
:1014C000054B684653F8213052F82110984705B073
:1014D0005DF804FB8005002088050020F0B5194B5D
:1014E00090F800C0DFF86CE043F82C20164B16464D
:1014F0000A6943F82C204B7F0EF80C300C46074647
:101500000FCC89B06D460FC594E80F0085E80F0039
:101510001EF80C30CDF810C04BB1002E0B4A6946B6
:1015200008BF3246381D00F059FB09B0F0BD002E4F
:10153000074A694608BF324607F10C0000F026F959
:10154000F3E700BF88050020800500207514000027
:10155000A914000090050020014B1B68184700BF2C
:101560009405002038B50B4B98420C4601D0002062
:1015700038BD0020FFF7C4FB074B1D7915B90122C8
:101580001C601A710020FFF7BDFB002DEFD0112069
:10159000EEE700BF0020004094050020034B984276
:1015A00001BF034B00221A601A71704700200040EF
:1015B000940500200023435082B043580193019BBF
:1015C00002B070470A4610B54FF48E71FFF7F2FF74
:1015D000136A9168C95C136A01331362C0F81C1561
:1015E00010BD8B690A4610B54FF4847123B9FFF71B
:1015F000E1FFD0F8183510BDFFF7DCFF536AD16862
:10160000D0F81805C854536A01335362F3E7000059
:101610001FB501238DF80030044BCDE90110D3E94B
:1016200000126846904705B05DF804FB9C05002059
:1016300030B54C48D0F8043313F4007F85B005462C
:101640004DD0D0F82431002B49D04FF49271FFF7E0
:10165000B1FF4FF40173C0F80833434B93F82920CE
:101660000AB9012242603F4902228DF80020D1F8D8
:101670008024C1F8802403929A690292DA68019268
:101680000022C3E906226846D3E900129047354894
:10169000D0F81C315BB134494A690B6A9A420A4658
:1016A0004AD991F82830002B46D1FFF78BFF2D48FF
:1016B000D0F844318BB14FF4A271FFF77BFF2A4B76
:1016C00093F829200AB1012202609A692AB1002206
:1016D000586AD9689A61FFF79BFF05B030BDD5F80D
:1016E00004335B07D3D5D5F80831002BCFD01E4C7F
:1016F0001C482146FFF775FF636AA2699A42234698
:10170000C5D1E269E1684AB12369E3600023606AF8
:10171000A261E3616362FFF77BFFB8E794F82920D9
:101720000AB901226A600F4A4FF40170C2F8080337
:101730000022586A9A61EEE70A484FF48E71FFF76B
:1017400039FF5369002BB2D051690291002391688F
:101750008DF80030019153616846D2E90013984733
:10176000A5E700BF002000409C0500201F2886BF81
:1017700000F01F00044B4FF0A04300F5E070022280
:1017800043F82020704700BF000300502DE9F843C4
:10179000614B057991462C2202FB0532064692F8F0
:1017A0002A200C469846002A40F0B1805B49006828
:1017B000FFF7D8FE0746002840F0AB8021684A1C9E
:1017C00010D01F2987BF564A01F01F030B464FF068
:1017D000A0420120984003F5E073C2F808050320F9
:1017E00042F823006068431C0DD01F288BBF00F017
:1017F0001F0303464A4A4FF0A04203F5E0734FF03F
:10180000000C42F823C03368A269C3F8242594F879
:1018100014C0627DBCF1010F4CEA0202C3F86C25D2
:10182000C3F81405C3F80C152BD1A168481C0DD0C2
:101830001F298BBF01F01F020A4639484FF0A04014
:1018400002F5E0724FF0000C40F822C0E068421C44
:1018500013D01F2887BF324A00F01F0C84464FF078
:10186000A0424FF0010E0EFA0CFE0CF5E07CC2F81F
:1018700008E54FF0030E42F82CE0C3F80805C3F862
:1018800010152C236B4308EB0302C2F80490226965
:1018900048F80320B9F1000F21D03068247F4FF4BD
:1018A0008E71FFF787FE4FF4A2713068FFF782FE5A
:1018B00032681C4BC2F80433110B42F30732630148
:1018C000002ADBB21EDB1848841884F80033012399
:1018D000520901F01F0103FA01F140F822103368A8
:1018E0000422C3F800252C2303FB05830022C3E94F
:1018F000062283F829205A61012283F82A203846DB
:10190000BDE8F883094A01F00F015354E7E70827BF
:10191000F5E71127F3E700BF9C0500203116000012
:10192000000300508000020000E100E014ED00E040
:101930002DE9F04103680479284D0022C3F8002501
:101940002C2202FB045201465268A2B1244AC3F879
:1019500008231A0B43F30733002B0CDB02F01F00A4
:101960005B090122824020331E4840F82320BFF348
:101970004F8FBFF36F8F0B68D3F80C05D3F8148526
:10198000D3F80865D3F810754FF0FF329042C3F8D2
:101990001425C3F80C25C3F80825C3F8102501D079
:1019A000FFF7E4FEB8F1FF3F02D04046FFF7DEFE4E
:1019B0007A1C02D03846FFF7D9FE731C02D030469D
:1019C000FFF7D4FE0868FFF7E9FD2C2303FB04545E
:1019D000002384F82A306360BDE8F0819C05002074
:1019E0008402020000E100E02DE9F047204F90F86A
:1019F00004904FF02C0808FB097405466669002E18
:101A000034D162610068A16026624FF48E7184F85F
:101A10002860FFF7CFFD2868012383602146FFF788
:101A2000D1FD6368A0468BB92868D4F814A0236A56
:101A30009A4511D82A68D2F81C31002BFBD001231B
:101A4000D3602C2303FB097300225A613046BDE8A2
:101A5000F08794F828303BB9D0F81C31002BF8D02F
:101A60004146FFF7AFFDE2E70F26EAE71126EDE773
:101A70009C0500200023435082B043580193019BF2
:101A800002B070471FB501238DF80030044BCDE93B
:101A90000110D3E900126846904705B05DF804FBD9
:101AA000C80500201F2886BF00F01F00044B4FF020
:101AB000A04300F5E070022243F82020704700BFE9
:101AC000000300507FB5434AD2F82461002E60D055
:101AD00010464FF49271FFF7CDFF02238DF80030CE
:101AE000D2F88034C2F880340393D2F83C350293A4
:101AF000394BDA6801920022C3E906226846D3E92D
:101B0000001290473348D0F8443173B14FF4A271BA
:101B1000FFF7B0FF304B9A693AB10022C3E90622C1
:101B2000D968D0F83C05FFF7ADFF2A48D0F820313E
:101B3000ABB14FF49071FFF79DFF0123C360264BBB
:101B40005A6962B1D0F84C150291002299688DF85B
:101B5000002001915A616846D3E9001290471D4860
:101B6000D0F858319BB14FF4AC71FFF783FF1A4B9B
:101B70005A6962B1D0F84C150291002299688DF82B
:101B8000002001915A616846D3E90012904704B0E1
:101B900070BDD2F81031002BB4D04FF488711046CC
:101BA000FFF768FF0C4BD2F83C0599698842A9D130
:101BB000DC69D96864B1D2F8005225F02005C2F87A
:101BC00000521A699C61DA60DE61FFF75BFF99E7FA
:101BD0009C61FAE700200040C80500202DE9F84389
:101BE000674B06799146242202FB0632044692F89E
:101BF00020200D469846002A40F0BE8061490068CA
:101C0000FFF7B0FC0746002840F0B8802868421C67
:101C100010D01F2887BF5C4A00F01F0303464FF017
:101C2000A0420121994003F5E073C2F80815032191
:101C300042F8231069684B1C0DD01F298BBF01F09F
:101C40001F030B46504A4FF0A04203F5E0734FF0DC
:101C5000000C42F823C02368AA69C3F8242595F82C
:101C600014C06A7DBCF1010F4CEA0202C3F86C2576
:101C7000C3F80C05C3F814152BD1A968481C0DD066
:101C80001F298BBF01F01F020A463F484FF0A040BA
:101C900002F5E0724FF0000C40F822C0E868421CE8
:101CA00013D01F2887BF384A00F01F0C84464FF01E
:101CB000A0424FF0010E0EFA0CFE0CF5E07CC2F8CB
:101CC00008E54FF0030E42F82CE0C3F80805C3F80E
:101CD00010152423734308EB0302C2F804902A6909
:101CE00048F80320B9F1000F30D020682A7F4FF464
:101CF0008871FFF7BFFE20684FF49071FFF7BAFEBE
:101D000020684FF49271FFF7B5FE20684FF4A2717E
:101D1000FFF7B0FE4FF4AC712068FFF7ABFE23680D
:101D20001A49C3F80413190B43F307335201002B6C
:101D3000D2B21CDB1648C51885F8002301225B09C6
:101D400001F01F0102FA01F140F823102368082274
:101D5000C3F80025242303FB06830022C3E90622DF
:101D60005A61012283F820203846BDE8F883094BE8
:101D700001F00F015A54E9E70827F5E71127F3E7C7
:101D8000C8050020C51A00000003005010034200DF
:101D900000E100E014ED00E02DE9F0413D4E057951
:101DA0000468242303FB056302465B68ABB13A4B2E
:101DB000C4F8083344F30733002B4FEA14310CDB2B
:101DC00001F01F005B09012181402033334840F8B6
:101DD0002310BFF34F8FBFF36F8FD4F8003223F07F
:101DE0002003C4F80032242303FB05639B6933B14D
:101DF0004FF4A2712046FFF73DFE012363604FF4CC
:101E0000AC712046FFF736FE0123E360242303FB79
:101E10000563D4F858110029FBD0996919B1D4F899
:101E200044110029F5D00023C4F800351368D3F815
:101E30000C05D3F81485D3F80815D3F810754FF0B6
:101E4000FF329042C3F80C25C3F81425C3F80825C7
:101E5000C3F8102501D0FFF725FEB8F1FF3F02D0EF
:101E60004046FFF71FFE7A1C02D03846FFF71AFEE5
:101E70004B1C02D00846FFF715FE2046FFF78EFBED
:101E8000242303FB0565002385F820306B60BDE843
:101E9000F08100BFC80500201003420000E100E00F
:101EA00001F06043B3F1005F2DE9F041064638D1FF
:101EB0001E4B0779242505FB073598466C69002CD5
:101EC00031D16A610068A9604FF49071FFF7D2FDCB
:101ED0004FF4AC713068FFF7CDFD33686A69A968CB
:101EE000C3F84415C3F8482501229A606A68AAB964
:101EF000D3F82021D3F858411AB9002CF8D00F2478
:101F000007E0002CFBD10122DA60D3F85821002A27
:101F1000FBD0242303FB078700237B612046BDE819
:101F2000F0811024FAE71124F8E700BFC80500206B
:101F30007FB503788DF804304368029383688DF889
:101F40000C30C36804930369064A8DF81430064BBD
:101F500001A853F8213052F82110984707B05DF8D6
:101F600004FB00BFEC050020FC050020F0B5054691
:101F7000174615F804CB124A42F82C70114A42F861
:101F80002C30114B0C460FCB85B06E4686E80F0007
:101F90002368009323798DF8053063798DF8063036
:101FA000A3680293002FA389084AADF80C3008BF3C
:101FB0003A4663463146284600F054F805B0F0BD75
:101FC000FC050020EC05002028460000311F000021
:101FD0001F2886BF054A00F01F004FF0A0420123D2
:101FE00003FA00F0C2F80805704700BF0003005074
:101FF0001F2886BF054A00F01F004FF0A0420123B2
:1020000003FA00F0C2F80C05704700BF000300504F
:102010004FF0402307B5D3F81831D3B10E4B0F4919
:1020200000221A60C87F1B680193FF28019B03D020
:102030008B7F5BB1FFF7DCFF00234B770B72D1E99D
:102040000031074803B05DF804EB1847FFF7C0FF05
:10205000F2E703B05DF804FB184100400C060020D5
:10206000140600202DE9F74F05796D4E01934FF0CE
:10207000240909FB05F906EB090A93469AF81C2086
:1020800080460C46002A40F0C780076865493846FC
:10209000FFF768FA0146002840F0C08046F809B012
:1020A000019BCAF80430237B2078012B00F29D802D
:1020B000FFF79EFF23781F2B86BF03F01F035A4AAA
:1020C0004FF0A04203F5E073012042F8230094F89A
:1020D0000190B9F1FF0F00F08B804846FFF788FFB1
:1020E000B9F11F0F8BBF09F01F034B464E4A4FF04B
:1020F000A04203F5E073032042F82300A378FF2BEE
:1021000079D01F2B8BBF03F01F021A4646484FF0B1
:10211000A04002F5E0724FF0040C40F822C09A464D
:10212000242202FB056282F82030E078D077FF2875
:1021300016D02379002B61D0FFF75AFFE3781F2BCD
:1021400086BF03F01F03384A4FF0A04203F5E07347
:10215000032042F82300242303FB056322799A77A6
:102160002378C7F80835A368C7F80C95C7F810A5F9
:10217000C7F82435637B227B003B18BF0123022A6A
:102180003FD0032A40D0012A01D143F00203C7F80F
:102190005435A379C7F8C0350723C7F80035242381
:1021A0006B43F358B3B1D8F80030627943F307308A
:1021B00052010028C3F30733D2B228DB1B4C271887
:1021C00087F800230122400903F01F0302FA03F3FA
:1021D00044F82030242303FB056500236B7701239B
:1021E0002B77084603B0BDE8F08FFFF7F1FE61E7FB
:1021F0004FF0FF3982E74FF0FF3A91E7FFF7E8FE33
:102200009CE743F00403C2E743F00603BFE7084836
:1022100003F00F03C254DDE70821E2E71121E0E7F4
:102220000C060020112000000003005000E100E037
:1022300014ED00E02DE9F3410679424F2423734366
:102240001446FA180D46517F8046002978D1FB5874
:1022500023B114F0140F04BF0123537795E80F0046
:102260004FF0240C0CFB067C0CF10C0E8EE80F00DA
:102270009CF81F00FF2804D09CF81E30C3B1FFF764
:10228000A7FE296821B101F06043B3F1005F06D1D8
:10229000AA6882B102F06043B3F1005F0BD024233F
:1022A00003FB067600237377102002B0BDE8F081AF
:1022B000FFF79EFEE5E7D8F800306868C3F84415DC
:1022C000C3F84805E968C3F834250022C3F8381577
:1022D000C3F81821D3F818210192019A14F00102D1
:1022E00018BF0122C3F8502514F0020218BF0122C2
:1022F000C3F8402522075CBF01221A6124227243E1
:10230000BA5892B9D3F81821002AFBD0242303FB32
:102310000676F07FFF2803D0B47F1CB1FFF768FE7C
:102320000020C2E7FFF754FEFAE714F004004FF074
:10233000400202D0C3F80823F2E7C3F80423B4E74D
:102340001120B2E70C0600200023435082B043580E
:102350000193019B02B070470B7B032B2AD8DFE867
:1023600003F022261A028B685A0304D5D0F84C35A4
:102370000A699A4207D18B685B031BD4D0F84C35AD
:102380004A699A4216D000230622C0F80035C0F8E8
:10239000002518467047D0F84C350A699A42F2D1A8
:1023A000D0F83C35ECE7D0F84C350A69E9E7D0F8CD
:1023B0003C35FAE701207047F0B55A485A4CD0F83E
:1023C000243187B00546F3B14FF49271FFF7BCFF9B
:1023D000D0F80431BBB9A368C0F808330223A36066
:1023E000A368C0F80433D0F860311BB1D0F80032D4
:1023F0009F0503D44B4B01221A625A61012384F8D2
:102400002E3007B0F0BDD5F80431002B52D045482E
:102410004FF48271FFF798FF236A5E060AD494F89E
:102420002E303BB940493F48FFF796FF80F001004E
:1024300084F82E00236A5D0721D43C4E0FCE01ADF7
:102440000FC5336837482B604FF4B071FFF77CFF3E
:1024500034484FF4AE71FFF777FF94F8303013B182
:1024600094F82E305BB12F4B0022C3F80022A260FB
:102470002F4AC3F808232F4B0822C3F88021294A8A
:10248000D2F8C434C2F8C43498073DD501238DF87E
:10249000003094F830300BB984F82F30236A5B0792
:1024A00003D594F82E30002BABD0D4E90031684628
:1024B0009847A6E71B484FF4A471FFF745FF237B1D
:1024C00083B91A4F0FCF01AE0FC63B68336094F843
:1024D0003030002BD3D1C5F80032A360144BC5F8BF
:1024E0000833C8E74FF40073C5F8003240F2022306
:1024F000A36003F1CE73C5F80833A368C5F80433AD
:102500000123AB602B627CE7590701D50223BEE7AC
:10251000DA0701D50323BAE794F82E30002BB6D0A2
:102520000423B4E700300040300600203C060020C1
:1025300002029C0100E100E02DE9F84F06793A4DD6
:102540004FF0340A0AFB06FA05EB0A079B4697F898
:102550002D3080460C469146002B60D133490068EF
:10256000FFF700F800285CD12168637B87F83230E0
:102570001F298CBF01F01F030B46B860C7F804B0D9
:1025800087F82F0087F8300003F5E07288BF284FE6
:1025900045F80A9098BF4FF0A04740F20C6347F807
:1025A000223062681F2A1F468CBF02F01F031346A9
:1025B00003F5E0738CBFDFF878C04FF0A04C4CF807
:1025C0002370D8F80030C3F80815C3F80C25A268AA
:1025D000C3F82425B9F1000F14D0227B43F307314F
:1025E00052010029C3F30733D2B213DB114C671831
:1025F00087F800230122490903F01F0302FA03F3BD
:1026000044F82130342303FB0655012385F82D308F
:10261000BDE8F88F084903F00F03CA54F2E7082019
:10262000F6E71120F4E700BF30060020B9230000D0
:102630000003005000E100E014ED00E002680379BF
:102640000621C2F80015044A342101FB03230222AB
:1026500083F82D20704700BF3006002030B54FF0C2
:10266000A04485B04FF40005C4F80C55CDE9000135
:10267000CDE90223694600220448FFF7DBFD00385C
:1026800018BF0120C4F8085505B030BD9C460000B5
:102690001FB50A4B0FCB6C4684E80F00084B009324
:1026A0004FF00073029300231A46214605488DF827
:1026B0000C30FFF75BFC04B010BD00BF68460000A3
:1026C0002F2D2EFF984600001FB51B211A22CDE9A1
:1026D00000124FF0CC72002302924FF48372ADF8D7
:1026E0000C200848ADF80E301A466946FEF742FE47
:1026F00008B1FEF7ADFA0448FFF7A0FF05B05DF89A
:1027000004FB00BFA8460000AC46000080B596B0B0
:10271000FFF7DAFF4FF0A0430322354DC3F85C27E3
:102720004FF40002C3F808250A2445F001054FF4D0
:102730007A40A847013CFAD1FFF7AAFF2D492E485D
:1027400000F06EF8012000F047F92C4B0EAA03F1BF
:102750000807164618685968144603C40833BB4274
:102760002246F7D118689B882060A38001210023AE
:1027700030460A9300F078F80E22002112A800F0EB
:1027800060FE002412A800F0EBF8CDE90B441C4FCA
:102790000D940BA800F03CF90AA800F081F90B9801
:1027A00000F034FC02460B460A98CDE9062300F0FF
:1027B0002DFCCDE904010D9800F028FCCDE90201C3
:1027C0000C9800F023FCDDE90623CDE90001384632
:1027D00000F0F8FA10210DF127008DF8274000F0E5
:1027E00099F964264FF47A40A847013EFAD1D0E720
:1027F000904600005D2600009846000078460000E4
:102800004246000038B5054D044645F001054FF439
:102810007A40A847013CFAD138BD00BFC04600004D
:102820001FB50C46B8B1B1B10C4B18600C4B196018
:102830000B23ADF8043000230293ADF80C3002AA4C
:102840000623022101A8A047064AB0FA80F35B09DB
:10285000137004B010BD0320FBE700BF7406002016
:102860007806002072060020F0B5384B1B788BB03C
:1028700004460D46002B67D042F20A03ADF808303B
:10288000C388334F03F00F02C3F302238DF80B30DC
:10289000837A8DF80C3003898DF80A2003F00F023B
:1028A000C3F302238DF80E30037B8DF80D2003F067
:1028B0000F0223F00F038DF8103083788DF80F206E
:1028C0008DF811308288C3788DF81230ADF814205D
:1028D000002302883E68ADF816208DF813301A46A2
:1028E000102102A8B0470646C8B9DDB142F20B0379
:1028F000CDE90600CDE90800ADF804303D681023AD
:1029000006AA022101A8A84740B90E220DF11A011A
:102910000DF10A0000F01AFD20B1052006463046F0
:102920000BB0F0BD23789B065EBF0A4B0A4A1A60C3
:102930000A4B04F10C0254F8041B43F8041B9442A4
:10294000F9D122881A80EAE70426E8E77206002017
:10295000780600201C0000206F12833A64060020D5
:1029600030B587B042F20B03ADF804300023CDE957
:102970000233CDE90433174B04461D6802AA102325
:10298000022101A8A84718BB9DF80B209DF80A302A
:1029900043EA0223E3809DF80C309DF80E20A372D9
:1029A0009DF80D3043EA022323819DF810209DF805
:1029B0000F3043EA0223A3819DF81130A3709DF8E4
:1029C0001230E370BDF81430A380BDF816302380B8
:1029D00007B030BD7806002037B50B4B1A889B78BE
:1029E0008DF80630094BADF804201C68002305461D
:1029F0001A46032101A8A047044615B10120FFF79C
:102A000001FF204603B030BDB84600007806002024
:102A100030B585B040F60B63ADF804300023CDE946
:102A200002331D4B1D68082304460DEB03021946B3
:102A300001A8A8479DF80D209DF80C3043EA022319
:102A40001BB29DF80F2007EE103A9DF80E3043EAB6
:102A500002231BB207EE903A104B9DF80B2093ED2A
:102A6000006A9DF80A3043EA02231BB206EE903A50
:102A7000B8EEC77AF8EEE66AF8EEE77A66EE866AAE
:102A800027EE067A67EE867AC4ED006A84ED017A55
:102A9000C4ED027A05B030BD780600201C0000208D
:102AA00037B541F20B43ADF80030002301930E4BD4
:102AB0001D6804230DEB0302044602216846A84763
:102AC0009DF807209DF806309FED087A43EA02231F
:102AD0001BB207EE903AF8EEE77A67EE877AC4ED1C
:102AE000007A03B030BD00BF78060020B81E853DD7
:102AF00007B50A238DF8043000238DF805008DF802
:102B000006101A46032101A8FFF7A8FD03B05DF8DF
:102B100004FB00002DE9F0412DED028B3C4B8AB007
:102B200006AA80460E4603F1080C1F461546186893
:102B30005968144603C4083363452246F7D1186820
:102B400020609B88A380002488F8004083233048BD
:102B50003B702146FFF788FE9FED2E8A2746A6424E
:102B600032D107EE906AF8EEE77ADFED2B6A284A59
:102B700088EE277ADFED297A77EE677A37EE667A84
:102B800067EE877AF5EEC07AF1EE10FA94BF04236F
:102B9000002388F800302B4608AD1C4603CCAC421D
:102BA00010605160234602F10802F6D120681060DF
:102BB000A388938000211648FFF756FE00200AB034
:102BC000BDEC028BBDE8F0816846CDE90077029745
:102BD000FFF71EFF01212E20FFF78AFF2820FFF7B5
:102BE00011FE03A8CDE903770597FFF711FF9DEDCF
:102BF000007ADDED037A77EEC77A00212E2038EED9
:102C0000278AFFF775FF1420FFF7FCFD0134A6E7C4
:102C10006406002000000000CDCC4C3E333333402E
:102C20000369C1688B429DBF8268D21802F1FF32EE
:102C300003F1FF3394BF501A581A70472DE9F84337
:102C4000D0E902940546A9EB040840689045204469
:102C50000F46144404D900F0CBFBEC60BDE8F883C8
:102C60004246A4EB090400F0C3FB6868224607EB68
:102C70000801F0E72DE9F843C5680646894617467E
:102C80004FF000083469B3687068A54228BFE418A3
:102C9000013C621B5C1BBC4228BF3C46944228BFDF
:102CA000144649462844224600F0A2FBB368254456
:102CB000AB4208BF00253F1BA044A144F560E1D111
:102CC0004046BDE8F883000010B5114C114AA261DE
:102CD0000223C4E90433104BE361A2644FF4007390
:102CE0000E4A0F492362E26400231022E01DA36212
:102CF0006362E362A3656365E365226500F0D4FB6C
:102D00000849204600F0D0FB2023A37110BD00BF6E
:102D10007C060020C646000004070020F4060020C0
:102D2000CF460000D3460000F8B5184C182300FB2E
:102D3000033503FB00402544C46A012C0F461646A8
:102D40000FD0022C1AD0F4B92846FFF769FF86424B
:102D500005D8324639462846FFF770FF34462046EC
:102D6000F8BD2846FFF75CFF8642344628BF04467C
:102D7000224639462846FFF761FFF0E72846BDE8BE
:102D8000F840FFF777BF0024E9E700BF7C0600208A
:102D900070B50B4B1B7804460D4616460BB9FFF772
:102DA00093FF0020FDF7ACFF324629462046FFF78F
:102DB000BBFF04460020FDF7A5FF204670BD00BF05
:102DC0007C0600200FB410B5A2B024AB802153F8CC
:102DD000042B019302A800F0FDFA802804460ADDC6
:102DE000802202A90020FFF7D3FF204622B0BDE8D1
:102DF000104004B070470028F7DD0246F1E70000FC
:102E0000034B1868A0F1080358425841704700BFAF
:102E100030010010064B1B68082B06D1054B1B68C0
:102E2000032B02D8044AD05C70470020704700BFD3
:102E30003001001034010010DA46000008B5FFF739
:102E4000DFFF40B14FF080430022C3F80C21C3F8EC
:102E50001021C3F83825FFF7D3FF002846D04FF0E4
:102E600080525E4BD2F80414C3F82015D2F808142F
:102E7000C3F82415D2F80C14C3F82815D2F810148E
:102E8000C3F82C15D2F81414C3F83015D2F818145E
:102E9000C3F83415D2F81C14C3F84015D2F8201426
:102EA000C3F84415D2F82414C3F84815D2F82814EE
:102EB000C3F84C15D2F82C14C3F85015D2F83014BE
:102EC000C3F85415D2F83414C3F86015D2F8381486
:102ED000C3F86415D2F83C14C3F86815D2F840144E
:102EE000C3F86C15D2F84424C3F87025FFF792FF9D
:102EF00010B13B4B3B4A1A60FFF78CFF18B13A4BBD
:102F0000FB22C3F81825FFF785FF48B13749384B36
:102F10000A681B6822F00F0203F00F0313430B60D3
:102F2000FFF778FF18B1334B4FF400721A60FFF7C8
:102F300067FF48B14FF08043D3F80024D20744BF65
:102F40006FF00102C3F800242B4AD2F8883043F412
:102F50007003C2F88830BFF34F8FBFF36F8F4FF00D
:102F60001023D3F80022002A03DBD3F80432002B0D
:102F70002FDA224B0122C3F80425D3F80024002ABB
:102F8000FBD04FF010221221C2F80012D3F8002417
:102F9000002AFBD04FF010231222C3F80422174B53
:102FA0001A46D3F800140029FBD00021C3F80415F9
:102FB000D2F80034002BFBD0BFF34F8F0E49104BDB
:102FC000CA6802F4E0621343CB60BFF34F8F00BFC7
:102FD000FDE70C4B0C4A1A6008BD00BF00C0004062
:102FE0008C5600404881030000F00040E40E004091
:102FF000580200104096024000ED00E000E0014061
:103000000400FA05200000200090D003C0F3C7514F
:1030100091B142004FEA40704FEAD2014FEA3101CC
:1030200001F16051B2F17F4F38BF704701F160513B
:1030300018BF41F40021704710F000410020704794
:1030400001F000428B1AA3F16051B1F5801F0ADB39
:10305000B1F17F6F09D242EAC102C10071F10041B2
:1030600042EB507070471046704701285B4113F5E2
:10307000001F04D842F0FE4040F400007047C90031
:1030800041EA507040EA020040F4800040F0804085
:10309000704700BF10EE100A4FEA4000B0F17F4FBA
:1030A0000CBF01200020704710EE100A41000020E4
:1030B000B1F17F4F18BF50EB0000704710EE100ABF
:1030C00000F00040704700BFB0EEC00A704700BF7C
:1030D00000B510EE100A00F003F800EE100A00BD73
:1030E0004FF07F43B3EB400F22D9410008BF704738
:1030F00003EA4002120E7F3A14DB172AA8BF70477A
:103100004FF6FF73C0F27F03D340184220EA03005A
:1031100018BF10F0004F08BF70474FF40001D140B6
:103120004018704710F0004F0CBF00200248704755
:1031300018BF024870470000000080BF0000C07F39
:1031400000B5014610EE100A00F003F800EE100A78
:1031500000BD4FF07F43B3EB400F98BF704713EAB9
:10316000400207D0120E7E3A0A6020EA530040F077
:103170007C5070470A6000F00040704700B501467F
:1031800010EE100A00F003F800EE100A00BD4FF038
:103190007F43B3EB400F98BF704713EA400204BF70
:1031A00000F00040704711EB1262DCBF00F00040FD
:1031B0007047FF2A3CBF00EBC150704740004FEA08
:1031C000330070477F2805D8034B185C034B5B5CCA
:1031D0001840704700207047EC4600006C47000024
:1031E000A0F16103192B98BF20387047A0F141036B
:1031F000192B98BF203070477F2805D8034B185CE7
:10320000034B5B5C1840704700207047EC460000A1
:103210006C470000A0F16103192B98BF203870475C
:10322000A0F14103192B98BF203070477F299ABF26
:10323000017001206FF02E0070475AB10A787F2A82
:103240000AD800B10260002119605960501A18BFF5
:1032500001207047002070476FF02E00704700007B
:10326000002816DB002817DD0022B7EE000A0C4B01
:1032700010F0010F1CBFD3ED007A20EE270A40109A
:1032800004330028F4DC4AB1F7EE007A87EE800AB6
:10329000704740420122E8E7B7EE000A704700BFDE
:1032A0004449000038B504460846A26842B1236884
:1032B00061685D1C8D4208BF00208B4208D2D0544B
:1032C000E3682BB121686268914201D22146984798
:1032D00023680133236038BD70B54C1E09D41646EF
:1032E000C5B229463046FFF7DDFF013CB4F1FF3F90
:1032F000F7D170BD10F0100F08D108B510F4007FA1
:1033000014BF30202020FFF7E7FF08BD70470028DA
:10331000B8BF40427047000008B5034B5B689B682C
:103320001B68984708BD00BF2400002008B509218C
:10333000FFF7F2FF08BD000000B5FDF749F8024BAA
:1033400018445DF804FB00BF080000007AB370B4B5
:1033500014460F2A15D902460B4640EA010515F01E
:10336000030F01D0013C0EE019461046043204332D
:1033700006680D68AE4204D110461946043C042C80
:10338000F2D8013C0ED00A460346044411461846C2
:103390000133013206780D78AE4203D1184611464A
:1033A000A342F3D100780B78C01A70BC704700209C
:1033B0007047037853B159B10144034613F8012F04
:1033C00012B18B42FAD10B46181A70470346FBE73D
:1033D0000346F9E710B584B00C461146029000226E
:1033E000039201941A46684600F0B0F804B010BD8C
:1033F000844640EA010313F0030F18D18446202AC3
:103400000BD32DE9F007B1E8F807A0E8F807A2F11F
:103410002002202AF7D2BDE8F007042A07D351F88A
:10342000043B40F8043BA2F10402042AF7D2002A2C
:1034300005D011F8013B00F8013B013AF9D1604693
:1034400070478446002A2DD010F0030F04D000F8F6
:10345000011B013A26D0F7E7C9B241EA012141EA4E
:103460000141202A12D3A2F120022DE9F0030B46DC
:103470000C460D460E460F4688468946A0E8FA03DC
:10348000203AFBD2BDE8F00320320BD0042A05D34A
:1034900040F8041B043A05D0042AF9D200F8011BB5
:1034A000013AFBD160467047024610F0030F16D177
:1034B00011F0030F13D12DE9F0004FF001374FF059
:1034C000803351F8044BA4EB070525EA04051D40A1
:1034D00002D142F8044BF4E7A1F10401F0BC11F869
:1034E000013B02F8013B002BF9D1704700F10101CB
:1034F00010F0030F11D010F8012B002A23D010F088
:10350000030F0AD010F8012B002A1CD010F0030F73
:1035100003D010F8012B002A15D02DE970004FF0D0
:1035200001324FF0803350F8044BA4EB020525EA3A
:1035300004051D4000D1F6E7A0F1040070BC10F8AE
:10354000012B002AFBD1A0EB010070472DE9F04FC1
:103550002DED048B89B083460392002303600D4652
:1035600015F8011B002900F0AE86DFEDA48A00F0FB
:103570009CBE002607E05E2866D146F4805601E036
:1035800046F0400615462A4612F8010B3028F2D8BC
:103590001F2838D9A0F12003102B34D801A151F8ED
:1035A00023F000BF81350000073600000736000019
:1035B000E935000007360000073600000736000036
:1035C000EF35000007360000073600000736000020
:1035D000F535000007360000FB3500000736000017
:1035E000073600000136000046F08006CAE746F4C0
:1035F0000046C7E746F02006C4E746F01006C1E7DC
:1036000046F40076BEE72A281ED1039B191D0391BC
:103610001F68002FBCBF7F4246F010061078AA1C1E
:1036200027EAE7752E2824D00027742845D07A2869
:1036300043D06C2800F0C2804C2800F0C580682878
:1036400000F0D38091463BE0A0F13003DBB2092BC0
:1036500088BF0027E4D8002707EB8707303800EB46
:10366000470712F8010BA0F13003DBB2092BF3D9A5
:10367000D6E710782A280AD1039B191D03911F68E9
:1036800050780232002FD0DB46F48076CDE701324D
:10369000A0F13003DBB2092B88BF0027F4D8002744
:1036A00007EB8707303800EB470712F8010BA0F152
:1036B0003003DBB2092BF3D9E4E7914619F8010B8B
:1036C000782800F28480DFE810F010068200820083
:1036D00082008200820082008200820082008200DA
:1036E00082008200820082008200820082008200CA
:1036F00082008200820082008200820082008200BA
:1037000082008200820082008200820082008200A9
:1037100082008200A3008200820082008200820078
:103720008200820082008200820082008200820089
:103730008200820082008200820082008200820079
:103740008200820082008200820082008200820069
:1037500082008200C401E101E60182008200820051
:103760008200820082008200820082008200820049
:10377000820082008200820082001E01820082009C
:103780008200820082008200820082008200820029
:10379000A9005301C601E301E80182005301820040
:1037A000820082008200B90041010401820082008F
:1037B000CE0082004C01820082002001914619F85F
:1037C000010B46F001067BE746F0010691460C4BE3
:1037D0001C68002C00F0658503AB019300972B4615
:1037E00032465946A04700F05CBD1078682809D0E1
:1037F00002F1010946F0040662E700BF0000C8427A
:103800000409002046F0080602F10209507857E743
:1038100025215846FFF746FD00F043BD039B1A1DC6
:1038200003921C78013D5A4629463046FFF762FD57
:1038300021465846FFF736FDB0463AE016F0080F2D
:1038400008D0DBF80020039B191D03911B681A7038
:1038500000F027BD039B1A1D03921B68DBF80020B4
:103860001A6000F01EBD039B1A1D03921C688C4B4E
:10387000002C08BF1C4626F4007816F4807F23D065
:1038800039462046FFF795FD0646AD1B5A462946A8
:103890004046FFF72FFD06F1FF3A56B12746344464
:1038A00017F8011B5846FFF7FDFCBC42F8D14FF05A
:1038B000FF3A18F0100F00F0F4845A4629462020F1
:1038C000FFF70AFD00F0EDBC2046FFF70FFE0646AD
:1038D000DBE7039B1A1D03921B6816F0800F0CBFD9
:1038E0000024232446F4807608271A46002B00F093
:1038F000B48404AB4FF0000806F40050DFF8A4C114
:10390000A64600F06ABC46F4005616F0800F1BD0A5
:1039100043F2780443F25803782818BF1C4616F483
:10392000807F01D026F4007616F4804F32D0039BBE
:103930001A1D03921B6816F0040F1FD01BB2002B38
:1039400020DA5B422D242DE00024E8E716F0800FFA
:103950000CBF0024302416F4807FE5D026F40076D6
:10396000E2E716F4807F07D026F400760024DBE738
:1039700046F480460024D7E70024D5E716F0080F68
:10398000DDD0DBB216F0200F61D116F0400F18BF6A
:10399000202407E0039B1A1D03921B6816F0040FF6
:1039A00050D09BB216F4807F00F0E68326F40076B8
:1039B0005838202800F23B8401A252F820F000BFC2
:1039C000EB3800002F4200002F4200002F42000081
:1039D0002F4200002F4200002F4200002F42000023
:1039E0002F4200002F4200002F4200002F42000013
:1039F000A54100002F4200002F4200002F4200008E
:103A00002F420000A54100002F4200002F4200007D
:103A10002F4200002F4200002F4200007D41000095
:103A2000EB3800002F4200002F4200002F42000020
:103A30002F420000A54100002F4200002F4200004D
:103A4000EB38000016F0080FACD0DBB2AAE72B244D
:103A5000A8E746F4005646F48066039B073323F03C
:103A6000070303F108020392D3E90001FFF7E8FA24
:103A700008EE100A16F4807F16D0B7B906F4406736
:103A8000B7F5406F14BF002701270EE046F400563B
:103A900046F40066E1E746F4005646F44066DCE78B
:103AA0005C490000304900000627B0EE480AFFF7E5
:103AB000F1FA002840F0BB80B0EE480AFFF7F4FAB4
:103AC0008046002840F0CC80B0EE480AFFF7F6FAB6
:103AD000002840F0CE8018EE103A08EE103A07A801
:103AE00000EE103AFFF72CFB079B03EB4303CA4A97
:103AF00082FB0312DB17C3EBA2030793B5EE408AE8
:103B0000F1EE10FA40F0BF8006F44064B4F5806F27
:103B10000AD0B4F5406F40F06E81079BBB4203DAD8
:103B200013F1040F80F2678107984042FFF798FB7A
:103B300028EE008A8DED028AB5EE408AF1EE10FA89
:103B400036D0B0EE480AFFF7A5FA002840F0B18061
:103B5000F2EE047AB4EEE78AF1EE10FA0FDB079B7F
:103B60000133F2EE047A1A4688EE278A0133B4EE66
:103B7000E78AF1EE10FAF6DA8DED028A0792DDEDB2
:103B8000027AB7EE007AF4EEC77AF1EE10FA0FD5AA
:103B9000079B013BF2EE046A1A4667EEA67A013BE8
:103BA000F4EEC77AF1EE10FAF6D4CDED027A079270
:103BB00027B1B4F5406F08BF07F1FF377842FFF730
:103BC0004FFBF6EE007A60EE277A9DED027A77EEF3
:103BD000877AB2EE047AF4EEC77AF1EE10FA80F248
:103BE0008180B0EE678A002F00F0918006F40863B0
:103BF000B3F5006F7ED026F4006302937B1DED1AAF
:103C0000013D16F4805F00F0F380079A834B83FB3D
:103C10000213A3EBE27303EB4303D31A0233042B27
:103C200000F2E480DFE803F099DA9699DA00B5EE65
:103C3000C08AF1EE10FA0CD416F4005F784C794B80
:103C400008BF1C4616F0200F08BF013426F480760A
:103C500011E616F4005F744C744B08BF1C46F5E780
:103C600016F4005F724C734B08BF1C4626F4807636
:103C700001E646F06006F1EE487A17EE903A2CE73E
:103C8000079B0133079307980130FFF7E9FAB4EE79
:103C9000C08AF1EE10FAF3DC02E0079B013B0793C8
:103CA0000798FFF7DDFAB4EEC08AF1EE10FAF4D40B
:103CB0002AE7B5EEC08AF1EE10FA0CD416F4005FD4
:103CC000574C584B08BF1C4616F0200F08BF013454
:103CD00026F48076CFE516F4005F534C534B08BFB3
:103CE0001C46F5E7079B01330793B2EE047A87EE93
:103CF000878A78E7092FA8BF09273846FFF7B0FA67
:103D000060EE087AFCEEE77A17EE903A4BB926F4AB
:103D100000630293053D16F080073FF472AF4746FB
:103D20006EE7454AA2FB0312D20802EB8202B3EB14
:103D3000420F7FF460AF4049A1FB0323DB08013F42
:103D4000E5D0A1FB0302D20802EB8202B3EB420FE3
:103D5000F2D050E74FF0010808E0F2EE047A27EEC7
:103D6000888A013A0792013D4FF0020827EAE77777
:103D700016F0600F18BF05F1FF350798FFF7C7FA77
:103D80006328C8BF05F1FF35F0EE487ABCEEC87A6B
:103D900017EE104AB8EE478A37EEC88A25EAE57A68
:103DA000029B13F4047F00F0D580029B13F0200FD8
:103DB00000F0DE8013F0400F14BF2D212B21584658
:103DC000FFF770FA029B13F0100F00F0DB801B4E20
:103DD00008F10055013D06EBC505EAE028EE888AAA
:103DE000023A0792023D4FF00308BFE7D046BDE715
:103DF0004FF00108BCE716F4806F3ED0079B0E2BF6
:103E00003ADC0133FC1A092CA8BF092416F0800FF4
:103E100016D0274631E000BF676666665655555591
:103E2000744900007C490000644900006C490000AE
:103E30008449000088490000CDCCCCCC90490000DA
:103E4000BB426BD0F6EE009AB2EE049A2046FFF722
:103E500007FA28EE000A30EE290AFFF739F9F0EEEA
:103E6000490A00F085FAB5EE400AF1EE10FA57D192
:103E7000013CEBD1274600E0474626F480630293DD
:103E8000079B7842A3F108028242C8BFA3F1090050
:103E9000FFF7E6F94FF0FF30FFF770F938EE008AD0
:103EA000B0EE489A07980130FFF7DAF9B4EEC08A0D
:103EB000F1EE10FA02DB079B013307930798002805
:103EC00040DB09282EDCFCEEC97A17EE904AB8EEEA
:103ED000678A39EE488A0023079320460021092C7F
:103EE00035D9DFF82CC44FF0010808F10108FCE9CE
:103EF0000223994208BF9042F7D207EB0803079AC2
:103F00001344ED1A06F080033B4318BF05F1FF355B
:103F100016F0600F18BF05F1FF353FE72746ACE705
:103F20002746AAE7A0F109030793C0F10900FFF7AC
:103F300097F929EE009AFCEEC97A17EE904A08EE3E
:103F4000108ACAE7002407944FF00108D5E74FF024
:103F50000108D2E7002D7FF728AF20255646013E05
:103F600029465846FFF79EF9002EF8D1B2461CE7C5
:103F7000029B13F0400F3FF425AF20215846FFF776
:103F800091F91FE7BAF1000F3FF421AF30255646F3
:103F9000013E29465846FFF785F9002EF8D1B24672
:103FA00015E74FF0300C61465846FFF77BF9B045F6
:103FB00015D0D5E90023A846083D0021994208BF45
:103FC0009442EED34FF0300C0CF1010C5FFA8CFCF4
:103FD000A41A0021994208BF9442F5D2E3E7029B5C
:103FE00013F4006449D1002F55D1029B13F0800FC8
:103FF00040F07E81029B13F4806F2FD013F4005F9A
:1040000014BF452165215846FFF74CF9079B002B4B
:10401000C0F294802B215846FFF744F90799632991
:1040200000F394800799B64C84FB0132C917C1EBA9
:10403000A2013031C9B25846FFF734F9079B84FB1F
:104040000324D917C1EBA40101EB8101A3EB4103C8
:1040500003F13001C9B25846FFF724F9BAF1000F55
:1040600000F01F8120245546013D21465846FFF7A8
:1040700019F9002DF8D1AA4613E1079B002BB2DDF8
:104080003025013B079329465846FFF70BF9079B5C
:10409000002BF6DCA7E72E215846FFF703F93D4633
:1040A000092FA8BF092525EAE5757F1B8CB1079864
:1040B000281AFFF7D5F820EE088AFCEEC87A17EE2A
:1040C000904A7DB305F10055013D8E4B03EBC505CC
:1040D00019E02846FFF7C4F820EE088AFCEEC87AFB
:1040E00017EE904AEDE70CF1010C5FFA8CFCA41A74
:1040F0000021994208BF9442F5D261465846FFF725
:10410000D1F846450ED0D5E90023A846083D002148
:10411000994208BF944202D34FF0300CE3E74FF0CE
:10412000300CEAE7002F3FF465AF3024013F214611
:104130005846FFF7B7F8002FF8D15BE72D21584616
:10414000FFF7B0F8079B5B42079367E76E4C84FB71
:104150000132C917C1EB62113031C9B25846FFF7BD
:10416000A1F8079A84FB0231D317C3EB61136421D2
:1041700001FB1323079355E7012719E41A464FF073
:104180000008002B55D004A94FF0000803F00703E6
:10419000303301F8013B08F10108D2081346002A28
:1041A000F4D146E019464FF00008002B41D04FF003
:1041B000000806F4004E4FF02C0ADFF858C1734691
:1041C000A6461C4624E002F00F01504C615C03F847
:1041D000011B08F10108120906D00028F3D002F0F3
:1041E0000F011CF80110F2E7744622E008AB03EB64
:1041F0000800ACFB0132D20802EB8203A1EB4303BF
:10420000303300F8103C08F1010809290DD9114696
:10421000002CEBD008F00303032BE7D108AB434499
:1042200003F810AC08F10108E0E7744601E04FF034
:104230000008A7EB080727EAE777ED1BA5EB0805C1
:10424000FF2C0DD9023DC4F307215846FFF72AF889
:10425000E1B25846FFF726F804E04FF00008E8E71F
:10426000002C4BD15A4629463046FFF743F85A46B0
:1042700039463020FFF730F8B8F1010A0ED404AB0C
:1042800054461C449846217827465846FFF70AF8BA
:10429000444504F1FF34F6D14FF0FF3A16F0100F09
:1042A0000BD14D4615F8011B69B125293FF461A9D1
:1042B0005846FEF7F7FFA946F3E75A46294620205D
:1042C000FFF70AF8EDE7DBF808303BB1DBF8002038
:1042D000DBF804108A423CBF00219954DBF800004F
:1042E00009B0BDEC048BBDE8F08F4FF0FF30F7E76D
:1042F0002E215846FEF7D6FF3D46D6E6013DA7E7FC
:1043000067666666904900001F85EB5120490000F2
:1043100098490000CDCCCCCCDFED137AB4EE670A1F
:10432000F1EE10FA12D010EE102AC2F3C7537F3B01
:1043300011D4162B12DC0D4921FA03F322EA0302F1
:1043400007EE902A026030EE670A7047C0ED007AEF
:10435000B0EE670A7047C0ED007A704780ED000A42
:10436000B0EE670A704700BF00000000FFFF7F004B
:1043700000B52DED028BF5EE400AF1EE10FA83B098
:104380004BD0B0EE608AF0EE408AFEF78DFE30B181
:10439000B0EE680A03B0BDEC028B5DF804FBB0EE32
:1043A000480AFEF781FE002843D1F5EE408AF1EE7F
:1043B00010FAEDD0B0EE680AFEF76CFE00283FD18F
:1043C000B0EE480AFEF766FE0028E1D1B0EE480ADA
:1043D000FEF77AFEB0EE408A88EE880A01A8FFF761
:1043E0009BFFDDED017AF5EEC08AB0EE680AF1EED2
:1043F00010FAA8EE670AB1EE487A24DDB4EEC08A5E
:10440000F1EE10FA98BF30EE480AB5EEC00AF1EEB0
:1044100010FABFD530EE080ABCE7FEF78DFF114B4E
:104420009FED110A1B68036003B0BDEC028B5DF8C1
:1044300004FBB0EE480A03B0BDEC028B5DF804FB50
:104440009FED090AA6E7B4EEC70AF1EE10FA98BF8D
:1044500030EE080AB5EEC00AF1EE10FA9ADD30EE41
:0C446000480A97E7404900000000C07FB8
:10446C001646000000000000384600000000000066
:10447C003D460000000000001A460000000000004D
:10448C001F460000000000000E4500000000030362
:10449C00E044000000000000EC4400001400002088
:1044AC007C000020440100204C01002084000020EE
:0444BC0018000000E4
:1044C000FFFFFFFFFFFFFFFFFFFFFFFFFFFFFFFFFC
:1044D00000000000000000000000D60106010000FE
:1044E000090500006D050000A904000075617274E3
:1044F0005F6C6F675F6261636B656E6400426163EE
:104500006B656E647320666C7573686564006170BA
:1045100070001B5B306D002573001B5B313B33313A
:104520006D0025734C6F67732064726F70706564E3
:10453000202825642925730D0A003C25733E20257B
:10454000733A2000202530327800202020007C00A3
:104550002563001B5B313B33306D001B5B313B330C
:10456000326D001B5B313B33336D001B5B313B33E2
:10457000346D001B5B313B33356D001B5B313B33CE
:10458000366D001B5B313B33376D007761726E69AE
:104590006E6700696E666F00646562756700000093
:1045A00012450000534500001A4500005B4500001D
:1045B000634500006B450000734500007B4500002B
:1045C0008345000000000000DE4500008B45000030
:1045D0009345000098450000466174616C20657247
:1045E000726F720053797374656D207265736574B0
:1045F000003031323334353637383941424344455F
:104600004600000000000000000000000000000064
:104610000338FDD87047505253005541525400554D
:104620004152544500000000FFFFFFFF0006FF005D
:1046300000000040000000005350494D005457490D
:104640004D00583A20252E3266207C20593A252EDE
:104650003266207C205A3A20252E3266207C205457
:104660003A20252E32660A00FFFFFFFF06FF0000FA
:1046700000000040000000000302000000006D0088
:104680006D000000000000000000000000000000BD
:104690000338FDD8704700000100000000400040D2
:1046A0000000000001000000000000000030004099
:1046B00000000000010000000A1F5200000000007E
:1046C0000338FDD870475465726D696E616C005295
:1046D0005454005345474745520001000000000074
:1046E00043000000504F5349580000002020202074
:1046F0002020202020682828282820202020202052
:1047000020202020202020202020202048101010B1
:1047100010101010101010101010101084848484C9
:10472000848484848484101010101010108181817E
:1047300081818101010101010101010101010101E9
:10474000010101010101011010101010108282827C
:1047500082828202020202020202020202020202B9
:1047600002020202020202101010102000070320B1
:10477000041702010857104080000000E0460000C6
:10478000E4470000F848000053756E004D6F6E005E
:104790005475650057656400546875004672690079
:1047A00053617400000000004A616E0046656200BB
:1047B0004D617200417072004D6179004A756E0062
:1047C0004A756C0041756700536570004F63740053
:1047D0004E6F76004465630000000000414D0050BC
:1047E0004D0000001C490000184900001849000055
:1047F0001849000018490000184900001849000035
:10480000184900001849000018490000FFFFFFFF89
:10481000FFFFFFFFFFFFFFFFFFFF00005848000002
:104820008847000094480000A8470000DC470000CB
:104830003C480000EC48000048480000256D2F254A
:10484000642F257900000000256120256220256560
:10485000202554202559000053756E646179004D60
:104860006F6E646179005475657364617900576592
:10487000646E6573646179005468757273646179FC
:10488000004672696461790053617475726461797C
:10489000000000004A616E756172790046656272BF
:1048A00075617279004D6172636800417072696C64
:1048B000004D6179004A756E65004A756C7900415A
:1048C00075677573740053657074656D6265720009
:1048D0004F63746F626572004E6F76656D626572CC
:1048E00000446563656D62657200000025483A25E5
:1048F0004D3A255300000000C5310000E1310000B1
:10490000ED310000F93100001532000021320000C5
:104910002D3200003B320000000000002E0000009D
:104920003031323334353637383961626364656625
:1049300030313233343536373839414243444546D5
:1049400021000000000020410000C84200401C4639
:1049500020BCBE4CCA1B0E5AAEC59D74286E756C29
:104960006C2900002D494E46000000002D696E663E
:10497000000000002B494E46000000002B696E66C7
:10498000000000004E414E006E616E00000000000D
:1049900001000000000000000A000000000000000C
:1049A0006400000000000000E803000000000000B8
:1049B0001027000000000000A08601000000000099
:1049C00040420F00000000008096980000000000A8
:1049D00000E1F5050000000000CA9A3B000000005D
:1049E00000E40B540200000000E8764817000000C5
:1049F0000010A5D4E800000000A0724E18090000C5
:104A000000407A10F35A00000080C6A47E8D030097
:104A10000000C16FF286230000008A5D78456301C3
:104A2000000064A7B3B6E00D0000E8890423C78A3C
:104A300000000000002000400000000000200040B6
:104A40000000000000000000FF0000006F12833A29
:104A50000090D0037C4700007C4700007C470000AA
:084A60007C4700007C470000C8
:040000030000037581
:00000001FF
